:1000000012C019C018C017C016C015C014C013C044
:1000100012C011C010C00FC00EC00DC00CC00BC06C
:100020000AC009C008C011241FBECFE5D4E0DEBF5E
:10003000CDBF02D04DC0E4CF87B3876087BB88B304
:10004000887F88BB24E032E0C09A4FEF51E18AE715
:10005000415050408040E1F700C00000C09888B394
:10006000836088BB9FEF4EE954E29150404050407E
:10007000E1F700C0000088B38C7F88BBC29A8FEF85
:1000800091E14AE7815090404040E1F700C0000014
:1000900088B3822788BB86E098B3922798BB5FE736
:1000A0009AE146E0515090404040E1F700C0000026
:1000B000815091F7C19A5FEF8EE994E251508040F0
:1000C0009040E1F700C0000088B3832788BBBCCF15
:0400D000F894FFCFD2
:00000001FF
